{
  "contractName": "Missing",
  "abi": [
    {
      "inputs": [],
      "stateMutability": "nonpayable",
      "type": "constructor"
    },
    {
      "anonymous": false,
      "inputs": [
        {
          "indexed": true,
          "internalType": "uint256",
          "name": "missing_persons_count",
          "type": "uint256"
        }
      ],
      "name": "votedEvent",
      "type": "event"
    },
    {
      "inputs": [
        {
          "internalType": "uint256",
          "name": "",
          "type": "uint256"
        }
      ],
      "name": "missing_persons",
      "outputs": [
        {
          "internalType": "string",
          "name": "name",
          "type": "string"
        },
        {
          "internalType": "uint256",
          "name": "age",
          "type": "uint256"
        },
        {
          "internalType": "uint256",
          "name": "height",
          "type": "uint256"
        },
        {
          "internalType": "string",
          "name": "description",
          "type": "string"
        },
        {
          "internalType": "string",
          "name": "division",
          "type": "string"
        },
        {
          "internalType": "string",
          "name": "contact",
          "type": "string"
        }
      ],
      "stateMutability": "view",
      "type": "function",
      "constant": true
    },
    {
      "inputs": [],
      "name": "missing_persons_count",
      "outputs": [
        {
          "internalType": "uint256",
          "name": "",
          "type": "uint256"
        }
      ],
      "stateMutability": "view",
      "type": "function",
      "constant": true
    },
    {
      "inputs": [
        {
          "internalType": "string",
          "name": "name",
          "type": "string"
        },
        {
          "internalType": "uint256",
          "name": "age",
          "type": "uint256"
        },
        {
          "internalType": "uint256",
          "name": "height",
          "type": "uint256"
        },
        {
          "internalType": "string",
          "name": "description",
          "type": "string"
        },
        {
          "internalType": "string",
          "name": "division",
          "type": "string"
        },
        {
          "internalType": "string",
          "name": "contact",
          "type": "string"
        }
      ],
      "name": "addMissingPerson",
      "outputs": [],
      "stateMutability": "nonpayable",
      "type": "function"
    },
    {
      "inputs": [
        {
          "internalType": "string",
          "name": "name",
          "type": "string"
        },
        {
          "internalType": "uint256",
          "name": "age",
          "type": "uint256"
        },
        {
          "internalType": "uint256",
          "name": "height",
          "type": "uint256"
        },
        {
          "internalType": "string",
          "name": "description",
          "type": "string"
        },
        {
          "internalType": "string",
          "name": "division",
          "type": "string"
        },
        {
          "internalType": "string",
          "name": "contact",
          "type": "string"
        }
      ],
      "name": "update",
      "outputs": [],
      "stateMutability": "nonpayable",
      "type": "function"
    }
  ],
  "bytecode": "0x608060405260006001553480156200001657600080fd5b50620001036040518060400160405280600d81526020017f5a617965642048756d6179756e00000000000000000000000000000000000000815250601760aa6040518060400160405280600a81526020017f426c7565207368697274000000000000000000000000000000000000000000008152506040518060400160405280600581526020017f4468616b610000000000000000000000000000000000000000000000000000008152506040518060400160405280600b81526020017f3031373538323035373639000000000000000000000000000000000000000000815250620003cd60201b60201c565b620001ef6040518060400160405280600c81526020017f536861626162204b616261620000000000000000000000000000000000000000815250601760aa6040518060400160405280600981526020017f52656420736869727400000000000000000000000000000000000000000000008152506040518060400160405280600a81526020017f43686174746f6772616d000000000000000000000000000000000000000000008152506040518060400160405280600b81526020017f3031373538323035373630000000000000000000000000000000000000000000815250620003cd60201b60201c565b620002db6040518060400160405280600481526020017f7573657200000000000000000000000000000000000000000000000000000000815250601760aa6040518060400160405280600b81526020017f426c61636b2073686972740000000000000000000000000000000000000000008152506040518060400160405280600581526020017f4468616b610000000000000000000000000000000000000000000000000000008152506040518060400160405280600781526020017f3432313432313400000000000000000000000000000000000000000000000000815250620003cd60201b60201c565b620003c76040518060400160405280600981526020017f416e6f6e796d6f75730000000000000000000000000000000000000000000000815250601760aa6040518060400160405280600b81526020017f426c61636b2073686972740000000000000000000000000000000000000000008152506040518060400160405280600681526020017f53796c68657400000000000000000000000000000000000000000000000000008152506040518060400160405280600b81526020017f3031373538323035373631000000000000000000000000000000000000000000815250620003cd60201b60201c565b62000884565b60016000815480929190620003e290620004e0565b91905055506040518060c0016040528087815260200186815260200185815260200184815260200183815260200182815250600080600154815260200190815260200160002060008201518160000190816200043f91906200079d565b50602082015181600101556040820151816002015560608201518160030190816200046b91906200079d565b5060808201518160040190816200048391906200079d565b5060a08201518160050190816200049b91906200079d565b50905050505050505050565b7f4e487b7100000000000000000000000000000000000000000000000000000000600052601160045260246000fd5b6000819050919050565b6000620004ed82620004d6565b91507fffffffffffffffffffffffffffffffffffffffffffffffffffffffffffffffff8203620005225762000521620004a7565b5b600182019050919050565b600081519050919050565b7f4e487b7100000000000000000000000000000000000000000000000000000000600052604160045260246000fd5b7f4e487b7100000000000000000000000000000000000000000000000000000000600052602260045260246000fd5b60006002820490506001821680620005af57607f821691505b602082108103620005c557620005c462000567565b5b50919050565b60008190508160005260206000209050919050565b60006020601f8301049050919050565b600082821b905092915050565b6000600883026200062f7fffffffffffffffffffffffffffffffffffffffffffffffffffffffffffffffff82620005f0565b6200063b8683620005f0565b95508019841693508086168417925050509392505050565b6000819050919050565b60006200067e620006786200067284620004d6565b62000653565b620004d6565b9050919050565b6000819050919050565b6200069a836200065d565b620006b2620006a98262000685565b848454620005fd565b825550505050565b600090565b620006c9620006ba565b620006d68184846200068f565b505050565b5b81811015620006fe57620006f2600082620006bf565b600181019050620006dc565b5050565b601f8211156200074d576200071781620005cb565b6200072284620005e0565b8101602085101562000732578190505b6200074a6200074185620005e0565b830182620006db565b50505b505050565b600082821c905092915050565b6000620007726000198460080262000752565b1980831691505092915050565b60006200078d83836200075f565b9150826002028217905092915050565b620007a8826200052d565b67ffffffffffffffff811115620007c457620007c362000538565b5b620007d0825462000596565b620007dd82828562000702565b600060209050601f83116001811462000815576000841562000800578287015190505b6200080c85826200077f565b8655506200087c565b601f1984166200082586620005cb565b60005b828110156200084f5784890151825560018201915060208501945060208101905062000828565b868310156200086f57848901516200086b601f8916826200075f565b8355505b6001600288020188555050505b505050505050565b610bbe80620008946000396000f3fe608060405234801561001057600080fd5b506004361061004c5760003560e01c806306764db9146100515780632b87c6061461006d5780634696f021146100a25780635f77d760146100c0575b600080fd5b61006b600480360381019061006691906105e3565b6100dc565b005b610087600480360381019061008291906106e0565b610121565b6040516100999695949392919061079b565b60405180910390f35b6100aa61037d565b6040516100b79190610818565b60405180910390f35b6100da60048036038101906100d591906105e3565b610383565b005b6100ea868686868686610383565b6001547ffff3c900d938d21d0990d786e819f29b8d05c1ef587b462b939609625b684b1660405160405180910390a2505050505050565b600060205280600052604060002060009150905080600001805461014490610862565b80601f016020809104026020016040519081016040528092919081815260200182805461017090610862565b80156101bd5780601f10610192576101008083540402835291602001916101bd565b820191906000526020600020905b8154815290600101906020018083116101a057829003601f168201915b5050505050908060010154908060020154908060030180546101de90610862565b80601f016020809104026020016040519081016040528092919081815260200182805461020a90610862565b80156102575780601f1061022c57610100808354040283529160200191610257565b820191906000526020600020905b81548152906001019060200180831161023a57829003601f168201915b50505050509080600401805461026c90610862565b80601f016020809104026020016040519081016040528092919081815260200182805461029890610862565b80156102e55780601f106102ba576101008083540402835291602001916102e5565b820191906000526020600020905b8154815290600101906020018083116102c857829003601f168201915b5050505050908060050180546102fa90610862565b80601f016020809104026020016040519081016040528092919081815260200182805461032690610862565b80156103735780601f1061034857610100808354040283529160200191610373565b820191906000526020600020905b81548152906001019060200180831161035657829003601f168201915b5050505050905086565b60015481565b60016000815480929190610396906108c2565b91905055506040518060c0016040528087815260200186815260200185815260200184815260200183815260200182815250600080600154815260200190815260200160002060008201518160000190816103f19190610ab6565b506020820151816001015560408201518160020155606082015181600301908161041b9190610ab6565b5060808201518160040190816104319190610ab6565b5060a08201518160050190816104479190610ab6565b50905050505050505050565b6000604051905090565b600080fd5b600080fd5b600080fd5b600080fd5b6000601f19601f8301169050919050565b7f4e487b7100000000000000000000000000000000000000000000000000000000600052604160045260246000fd5b6104ba82610471565b810181811067ffffffffffffffff821117156104d9576104d8610482565b5b80604052505050565b60006104ec610453565b90506104f882826104b1565b919050565b600067ffffffffffffffff82111561051857610517610482565b5b61052182610471565b9050602081019050919050565b82818337600083830152505050565b600061055061054b846104fd565b6104e2565b90508281526020810184848401111561056c5761056b61046c565b5b61057784828561052e565b509392505050565b600082601f83011261059457610593610467565b5b81356105a484826020860161053d565b91505092915050565b6000819050919050565b6105c0816105ad565b81146105cb57600080fd5b50565b6000813590506105dd816105b7565b92915050565b60008060008060008060c08789031215610600576105ff61045d565b5b600087013567ffffffffffffffff81111561061e5761061d610462565b5b61062a89828a0161057f565b965050602061063b89828a016105ce565b955050604061064c89828a016105ce565b945050606087013567ffffffffffffffff81111561066d5761066c610462565b5b61067989828a0161057f565b935050608087013567ffffffffffffffff81111561069a57610699610462565b5b6106a689828a0161057f565b92505060a087013567ffffffffffffffff8111156106c7576106c6610462565b5b6106d389828a0161057f565b9150509295509295509295565b6000602082840312156106f6576106f561045d565b5b6000610704848285016105ce565b91505092915050565b600081519050919050565b600082825260208201905092915050565b60005b8381101561074757808201518184015260208101905061072c565b60008484015250505050565b600061075e8261070d565b6107688185610718565b9350610778818560208601610729565b61078181610471565b840191505092915050565b610795816105ad565b82525050565b600060c08201905081810360008301526107b58189610753565b90506107c4602083018861078c565b6107d1604083018761078c565b81810360608301526107e38186610753565b905081810360808301526107f78185610753565b905081810360a083015261080b8184610753565b9050979650505050505050565b600060208201905061082d600083018461078c565b92915050565b7f4e487b7100000000000000000000000000000000000000000000000000000000600052602260045260246000fd5b6000600282049050600182168061087a57607f821691505b60208210810361088d5761088c610833565b5b50919050565b7f4e487b7100000000000000000000000000000000000000000000000000000000600052601160045260246000fd5b60006108cd826105ad565b91507fffffffffffffffffffffffffffffffffffffffffffffffffffffffffffffffff82036108ff576108fe610893565b5b600182019050919050565b60008190508160005260206000209050919050565b60006020601f8301049050919050565b600082821b905092915050565b60006008830261096c7fffffffffffffffffffffffffffffffffffffffffffffffffffffffffffffffff8261092f565b610976868361092f565b95508019841693508086168417925050509392505050565b6000819050919050565b60006109b36109ae6109a9846105ad565b61098e565b6105ad565b9050919050565b6000819050919050565b6109cd83610998565b6109e16109d9826109ba565b84845461093c565b825550505050565b600090565b6109f66109e9565b610a018184846109c4565b505050565b5b81811015610a2557610a1a6000826109ee565b600181019050610a07565b5050565b601f821115610a6a57610a3b8161090a565b610a448461091f565b81016020851015610a53578190505b610a67610a5f8561091f565b830182610a06565b50505b505050565b600082821c905092915050565b6000610a8d60001984600802610a6f565b1980831691505092915050565b6000610aa68383610a7c565b9150826002028217905092915050565b610abf8261070d565b67ffffffffffffffff811115610ad857610ad7610482565b5b610ae28254610862565b610aed828285610a29565b600060209050601f831160018114610b205760008415610b0e578287015190505b610b188582610a9a565b865550610b80565b601f198416610b2e8661090a565b60005b82811015610b5657848901518255600182019150602085019450602081019050610b31565b86831015610b735784890151610b6f601f891682610a7c565b8355505b6001600288020188555050505b50505050505056fea26469706673582212203c30f796bc83aa2818c2834fe693cddfefd779fcbdfeaea21a654285c28d253264736f6c63430008100033",
  "immutableReferences": {},
  "source": "// SPDX-License-Identifier: GPL-3.0\npragma solidity >=0.7.0 <0.9.0;\n\ncontract Missing {\n    struct missing_person {\n        string name;\n        uint256 age;\n        uint256 height;\n        string description;\n        string division;\n        string contact;\n    }\n    event votedEvent(uint256 indexed missing_persons_count);\n    mapping(uint => missing_person) public missing_persons;\n    uint256 public missing_persons_count = 0;\n    \n\n\n    //Constructor\n    constructor() {\n        addMissingPerson(\"Zayed Humayun\",23,170, \"Blue shirt\",\"Dhaka\",\"01758205769\");\n        addMissingPerson(\"Shabab Kabab\",23,170, \"Red shirt\",\"Chattogram\",\"01758205760\");\n        addMissingPerson(\"user\",23,170, \"Black shirt\",\"Dhaka\",\"4214214\");\n        addMissingPerson(\"Anonymous\",23,170, \"Black shirt\",\"Sylhet\",\"01758205761\");\n\n    }\n    function addMissingPerson(string memory name, uint256 age, uint  height, string memory description, string memory division, string memory contact) public {\n        missing_persons_count++;\n        missing_persons[missing_persons_count] = missing_person(name, age, height, description, division, contact);\n    }\n    function update(string memory name, uint256 age, uint  height, string memory description, string memory division, string memory contact) public {\n        addMissingPerson(name, age, height, description, division, contact);\n        emit votedEvent(missing_persons_count);\n    }\n\n}\n",
  "sourcePath": "/home/abystoma/diary/contracts/Missing.sol",
  "compiler": {
    "name": "solc",
    "version": "0.8.16+commit.07a7930e.Emscripten.clang"
  },
  "schemaVersion": "3.4.13",
  "updatedAt": "2023-04-09T09:20:29.635Z",
  "networkType": "ethereum",
  "devdoc": {
    "kind": "dev",
    "methods": {},
    "version": 1
  },
  "userdoc": {
    "kind": "user",
    "methods": {},
    "version": 1
  }
}